{
  "contractName": "PAToken",
  "abi": [
    {
      "inputs": [
        {
          "internalType": "string",
          "name": "_name",
          "type": "string"
        },
        {
          "internalType": "string",
          "name": "_symbol",
          "type": "string"
        },
        {
          "internalType": "uint256",
          "name": "_initialSupply",
          "type": "uint256"
        }
      ],
      "stateMutability": "nonpayable",
      "type": "constructor"
    },
    {
      "anonymous": false,
      "inputs": [
        {
          "indexed": true,
          "internalType": "address",
          "name": "owner",
          "type": "address"
        },
        {
          "indexed": true,
          "internalType": "address",
          "name": "spender",
          "type": "address"
        },
        {
          "indexed": false,
          "internalType": "uint256",
          "name": "value",
          "type": "uint256"
        }
      ],
      "name": "Approval",
      "type": "event"
    },
    {
      "anonymous": false,
      "inputs": [
        {
          "indexed": true,
          "internalType": "address",
          "name": "from",
          "type": "address"
        },
        {
          "indexed": true,
          "internalType": "address",
          "name": "to",
          "type": "address"
        },
        {
          "indexed": false,
          "internalType": "uint256",
          "name": "value",
          "type": "uint256"
        }
      ],
      "name": "Transfer",
      "type": "event"
    },
    {
      "inputs": [
        {
          "internalType": "address",
          "name": "owner",
          "type": "address"
        },
        {
          "internalType": "address",
          "name": "spender",
          "type": "address"
        }
      ],
      "name": "allowance",
      "outputs": [
        {
          "internalType": "uint256",
          "name": "",
          "type": "uint256"
        }
      ],
      "stateMutability": "view",
      "type": "function",
      "constant": true
    },
    {
      "inputs": [
        {
          "internalType": "address",
          "name": "spender",
          "type": "address"
        },
        {
          "internalType": "uint256",
          "name": "amount",
          "type": "uint256"
        }
      ],
      "name": "approve",
      "outputs": [
        {
          "internalType": "bool",
          "name": "",
          "type": "bool"
        }
      ],
      "stateMutability": "nonpayable",
      "type": "function"
    },
    {
      "inputs": [
        {
          "internalType": "address",
          "name": "account",
          "type": "address"
        }
      ],
      "name": "balanceOf",
      "outputs": [
        {
          "internalType": "uint256",
          "name": "",
          "type": "uint256"
        }
      ],
      "stateMutability": "view",
      "type": "function",
      "constant": true
    },
    {
      "inputs": [
        {
          "internalType": "address",
          "name": "spender",
          "type": "address"
        },
        {
          "internalType": "uint256",
          "name": "subtractedValue",
          "type": "uint256"
        }
      ],
      "name": "decreaseAllowance",
      "outputs": [
        {
          "internalType": "bool",
          "name": "",
          "type": "bool"
        }
      ],
      "stateMutability": "nonpayable",
      "type": "function"
    },
    {
      "inputs": [
        {
          "internalType": "address",
          "name": "spender",
          "type": "address"
        },
        {
          "internalType": "uint256",
          "name": "addedValue",
          "type": "uint256"
        }
      ],
      "name": "increaseAllowance",
      "outputs": [
        {
          "internalType": "bool",
          "name": "",
          "type": "bool"
        }
      ],
      "stateMutability": "nonpayable",
      "type": "function"
    },
    {
      "inputs": [],
      "name": "name",
      "outputs": [
        {
          "internalType": "string",
          "name": "",
          "type": "string"
        }
      ],
      "stateMutability": "view",
      "type": "function",
      "constant": true
    },
    {
      "inputs": [],
      "name": "symbol",
      "outputs": [
        {
          "internalType": "string",
          "name": "",
          "type": "string"
        }
      ],
      "stateMutability": "view",
      "type": "function",
      "constant": true
    },
    {
      "inputs": [],
      "name": "totalSupply",
      "outputs": [
        {
          "internalType": "uint256",
          "name": "",
          "type": "uint256"
        }
      ],
      "stateMutability": "view",
      "type": "function",
      "constant": true
    },
    {
      "inputs": [
        {
          "internalType": "address",
          "name": "sender",
          "type": "address"
        },
        {
          "internalType": "address",
          "name": "recipient",
          "type": "address"
        },
        {
          "internalType": "uint256",
          "name": "amount",
          "type": "uint256"
        }
      ],
      "name": "transferFrom",
      "outputs": [
        {
          "internalType": "bool",
          "name": "",
          "type": "bool"
        }
      ],
      "stateMutability": "nonpayable",
      "type": "function"
    },
    {
      "inputs": [],
      "name": "decimals",
      "outputs": [
        {
          "internalType": "uint8",
          "name": "",
          "type": "uint8"
        }
      ],
      "stateMutability": "view",
      "type": "function",
      "constant": true
    },
    {
      "inputs": [
        {
          "internalType": "address",
          "name": "account",
          "type": "address"
        },
        {
          "internalType": "uint256",
          "name": "amount",
          "type": "uint256"
        }
      ],
      "name": "mint",
      "outputs": [],
      "stateMutability": "nonpayable",
      "type": "function"
    },
    {
      "inputs": [
        {
          "internalType": "address",
          "name": "recipient",
          "type": "address"
        },
        {
          "internalType": "uint256",
          "name": "amount",
          "type": "uint256"
        }
      ],
      "name": "transfer",
      "outputs": [
        {
          "internalType": "bool",
          "name": "",
          "type": "bool"
        }
      ],
      "stateMutability": "nonpayable",
      "type": "function"
    }
  ],
  "bytecode": "0x60806040523480156200001157600080fd5b5060405162001e9038038062001e9083398181016040528101906200003791906200037e565b828281600390805190602001906200005192919062000245565b5080600490805190602001906200006a92919062000245565b50505080600581905550620000b03362000089620000b960201b60201c565b600a620000979190620005a5565b83620000a49190620006e2565b620000c260201b60201c565b505050620008ea565b60006008905090565b600073ffffffffffffffffffffffffffffffffffffffff168273ffffffffffffffffffffffffffffffffffffffff16141562000135576040517f08c379a00000000000000000000000000000000000000000000000000000000081526004016200012c906200043e565b60405180910390fd5b62000149600083836200023b60201b60201c565b80600260008282546200015d9190620004ed565b92505081905550806000808473ffffffffffffffffffffffffffffffffffffffff1673ffffffffffffffffffffffffffffffffffffffff1681526020019081526020016000206000828254620001b49190620004ed565b925050819055508173ffffffffffffffffffffffffffffffffffffffff16600073ffffffffffffffffffffffffffffffffffffffff167fddf252ad1be2c89b69c2b068fc378daa952ba7f163c4a11628f55a4df523b3ef836040516200021b919062000460565b60405180910390a362000237600083836200024060201b60201c565b5050565b505050565b505050565b828054620002539062000790565b90600052602060002090601f016020900481019282620002775760008555620002c3565b82601f106200029257805160ff1916838001178555620002c3565b82800160010185558215620002c3579182015b82811115620002c2578251825591602001919060010190620002a5565b5b509050620002d29190620002d6565b5090565b5b80821115620002f1576000816000905550600101620002d7565b5090565b60006200030c6200030684620004a6565b6200047d565b9050828152602081018484840111156200032557600080fd5b620003328482856200075a565b509392505050565b600082601f8301126200034c57600080fd5b81516200035e848260208601620002f5565b91505092915050565b6000815190506200037881620008d0565b92915050565b6000806000606084860312156200039457600080fd5b600084015167ffffffffffffffff811115620003af57600080fd5b620003bd868287016200033a565b935050602084015167ffffffffffffffff811115620003db57600080fd5b620003e9868287016200033a565b9250506040620003fc8682870162000367565b9150509250925092565b600062000415601f83620004dc565b91506200042282620008a7565b602082019050919050565b620004388162000743565b82525050565b60006020820190508181036000830152620004598162000406565b9050919050565b60006020820190506200047760008301846200042d565b92915050565b6000620004896200049c565b9050620004978282620007c6565b919050565b6000604051905090565b600067ffffffffffffffff821115620004c457620004c36200085a565b5b620004cf8262000889565b9050602081019050919050565b600082825260208201905092915050565b6000620004fa8262000743565b9150620005078362000743565b9250827fffffffffffffffffffffffffffffffffffffffffffffffffffffffffffffffff038211156200053f576200053e620007fc565b5b828201905092915050565b6000808291508390505b60018511156200059c57808604811115620005745762000573620007fc565b5b6001851615620005845780820291505b808102905062000594856200089a565b945062000554565b94509492505050565b6000620005b28262000743565b9150620005bf836200074d565b9250620005ee7fffffffffffffffffffffffffffffffffffffffffffffffffffffffffffffffff8484620005f6565b905092915050565b600082620006085760019050620006db565b81620006185760009050620006db565b81600181146200063157600281146200063c5762000672565b6001915050620006db565b60ff841115620006515762000650620007fc565b5b8360020a9150848211156200066b576200066a620007fc565b5b50620006db565b5060208310610133831016604e8410600b8410161715620006ac5782820a905083811115620006a657620006a5620007fc565b5b620006db565b620006bb84848460016200054a565b92509050818404811115620006d557620006d4620007fc565b5b81810290505b9392505050565b6000620006ef8262000743565b9150620006fc8362000743565b9250817fffffffffffffffffffffffffffffffffffffffffffffffffffffffffffffffff0483118215151615620007385762000737620007fc565b5b828202905092915050565b6000819050919050565b600060ff82169050919050565b60005b838110156200077a5780820151818401526020810190506200075d565b838111156200078a576000848401525b50505050565b60006002820490506001821680620007a957607f821691505b60208210811415620007c057620007bf6200082b565b5b50919050565b620007d18262000889565b810181811067ffffffffffffffff82111715620007f357620007f26200085a565b5b80604052505050565b7f4e487b7100000000000000000000000000000000000000000000000000000000600052601160045260246000fd5b7f4e487b7100000000000000000000000000000000000000000000000000000000600052602260045260246000fd5b7f4e487b7100000000000000000000000000000000000000000000000000000000600052604160045260246000fd5b6000601f19601f8301169050919050565b60008160011c9050919050565b7f45524332303a206d696e7420746f20746865207a65726f206164647265737300600082015250565b620008db8162000743565b8114620008e757600080fd5b50565b61159680620008fa6000396000f3fe608060405234801561001057600080fd5b50600436106100b45760003560e01c806340c10f191161007157806340c10f19146101a357806370a08231146101bf57806395d89b41146101ef578063a457c2d71461020d578063a9059cbb1461023d578063dd62ed3e1461026d576100b4565b806306fdde03146100b9578063095ea7b3146100d757806318160ddd1461010757806323b872dd14610125578063313ce567146101555780633950935114610173575b600080fd5b6100c161029d565b6040516100ce9190610fed565b60405180910390f35b6100f160048036038101906100ec9190610e18565b61032f565b6040516100fe9190610fd2565b60405180910390f35b61010f61034d565b60405161011c919061110f565b60405180910390f35b61013f600480360381019061013a9190610dc9565b610357565b60405161014c9190610fd2565b60405180910390f35b61015d61044f565b60405161016a919061112a565b60405180910390f35b61018d60048036038101906101889190610e18565b610458565b60405161019a9190610fd2565b60405180910390f35b6101bd60048036038101906101b89190610e18565b610504565b005b6101d960048036038101906101d49190610d64565b610512565b6040516101e6919061110f565b60405180910390f35b6101f761055a565b6040516102049190610fed565b60405180910390f35b61022760048036038101906102229190610e18565b6105ec565b6040516102349190610fd2565b60405180910390f35b61025760048036038101906102529190610e18565b6106d7565b6040516102649190610fd2565b60405180910390f35b61028760048036038101906102829190610d8d565b6106f5565b604051610294919061110f565b60405180910390f35b6060600380546102ac9061123f565b80601f01602080910402602001604051908101604052809291908181526020018280546102d89061123f565b80156103255780601f106102fa57610100808354040283529160200191610325565b820191906000526020600020905b81548152906001019060200180831161030857829003601f168201915b5050505050905090565b600061034361033c61077c565b8484610784565b6001905092915050565b6000600254905090565b600061036484848461094f565b6000600160008673ffffffffffffffffffffffffffffffffffffffff1673ffffffffffffffffffffffffffffffffffffffff16815260200190815260200160002060006103af61077c565b73ffffffffffffffffffffffffffffffffffffffff1673ffffffffffffffffffffffffffffffffffffffff1681526020019081526020016000205490508281101561042f576040517f08c379a00000000000000000000000000000000000000000000000000000000081526004016104269061106f565b60405180910390fd5b6104438561043b61077c565b858403610784565b60019150509392505050565b60006008905090565b60006104fa61046561077c565b84846001600061047361077c565b73ffffffffffffffffffffffffffffffffffffffff1673ffffffffffffffffffffffffffffffffffffffff16815260200190815260200160002060008873ffffffffffffffffffffffffffffffffffffffff1673ffffffffffffffffffffffffffffffffffffffff168152602001908152602001600020546104f59190611161565b610784565b6001905092915050565b61050e8282610bd0565b5050565b60008060008373ffffffffffffffffffffffffffffffffffffffff1673ffffffffffffffffffffffffffffffffffffffff168152602001908152602001600020549050919050565b6060600480546105699061123f565b80601f01602080910402602001604051908101604052809291908181526020018280546105959061123f565b80156105e25780601f106105b7576101008083540402835291602001916105e2565b820191906000526020600020905b8154815290600101906020018083116105c557829003601f168201915b5050505050905090565b600080600160006105fb61077c565b73ffffffffffffffffffffffffffffffffffffffff1673ffffffffffffffffffffffffffffffffffffffff16815260200190815260200160002060008573ffffffffffffffffffffffffffffffffffffffff1673ffffffffffffffffffffffffffffffffffffffff168152602001908152602001600020549050828110156106b8576040517f08c379a00000000000000000000000000000000000000000000000000000000081526004016106af906110cf565b60405180910390fd5b6106cc6106c361077c565b85858403610784565b600191505092915050565b60006106eb6106e461077c565b848461094f565b6001905092915050565b6000600160008473ffffffffffffffffffffffffffffffffffffffff1673ffffffffffffffffffffffffffffffffffffffff16815260200190815260200160002060008373ffffffffffffffffffffffffffffffffffffffff1673ffffffffffffffffffffffffffffffffffffffff16815260200190815260200160002054905092915050565b600033905090565b600073ffffffffffffffffffffffffffffffffffffffff168373ffffffffffffffffffffffffffffffffffffffff1614156107f4576040517f08c379a00000000000000000000000000000000000000000000000000000000081526004016107eb906110af565b60405180910390fd5b600073ffffffffffffffffffffffffffffffffffffffff168273ffffffffffffffffffffffffffffffffffffffff161415610864576040517f08c379a000000000000000000000000000000000000000000000000000000000815260040161085b9061102f565b60405180910390fd5b80600160008573ffffffffffffffffffffffffffffffffffffffff1673ffffffffffffffffffffffffffffffffffffffff16815260200190815260200160002060008473ffffffffffffffffffffffffffffffffffffffff1673ffffffffffffffffffffffffffffffffffffffff168152602001908152602001600020819055508173ffffffffffffffffffffffffffffffffffffffff168373ffffffffffffffffffffffffffffffffffffffff167f8c5be1e5ebec7d5bd14f71427d1e84f3dd0314c0f7b2291e5b200ac8c7c3b92583604051610942919061110f565b60405180910390a3505050565b600073ffffffffffffffffffffffffffffffffffffffff168373ffffffffffffffffffffffffffffffffffffffff1614156109bf576040517f08c379a00000000000000000000000000000000000000000000000000000000081526004016109b69061108f565b60405180910390fd5b600073ffffffffffffffffffffffffffffffffffffffff168273ffffffffffffffffffffffffffffffffffffffff161415610a2f576040517f08c379a0000000000000000000000000000000000000000000000000000000008152600401610a269061100f565b60405180910390fd5b610a3a838383610d30565b60008060008573ffffffffffffffffffffffffffffffffffffffff1673ffffffffffffffffffffffffffffffffffffffff16815260200190815260200160002054905081811015610ac0576040517f08c379a0000000000000000000000000000000000000000000000000000000008152600401610ab79061104f565b60405180910390fd5b8181036000808673ffffffffffffffffffffffffffffffffffffffff1673ffffffffffffffffffffffffffffffffffffffff16815260200190815260200160002081905550816000808573ffffffffffffffffffffffffffffffffffffffff1673ffffffffffffffffffffffffffffffffffffffff1681526020019081526020016000206000828254610b539190611161565b925050819055508273ffffffffffffffffffffffffffffffffffffffff168473ffffffffffffffffffffffffffffffffffffffff167fddf252ad1be2c89b69c2b068fc378daa952ba7f163c4a11628f55a4df523b3ef84604051610bb7919061110f565b60405180910390a3610bca848484610d35565b50505050565b600073ffffffffffffffffffffffffffffffffffffffff168273ffffffffffffffffffffffffffffffffffffffff161415610c40576040517f08c379a0000000000000000000000000000000000000000000000000000000008152600401610c37906110ef565b60405180910390fd5b610c4c60008383610d30565b8060026000828254610c5e9190611161565b92505081905550806000808473ffffffffffffffffffffffffffffffffffffffff1673ffffffffffffffffffffffffffffffffffffffff1681526020019081526020016000206000828254610cb39190611161565b925050819055508173ffffffffffffffffffffffffffffffffffffffff16600073ffffffffffffffffffffffffffffffffffffffff167fddf252ad1be2c89b69c2b068fc378daa952ba7f163c4a11628f55a4df523b3ef83604051610d18919061110f565b60405180910390a3610d2c60008383610d35565b5050565b505050565b505050565b600081359050610d4981611532565b92915050565b600081359050610d5e81611549565b92915050565b600060208284031215610d7657600080fd5b6000610d8484828501610d3a565b91505092915050565b60008060408385031215610da057600080fd5b6000610dae85828601610d3a565b9250506020610dbf85828601610d3a565b9150509250929050565b600080600060608486031215610dde57600080fd5b6000610dec86828701610d3a565b9350506020610dfd86828701610d3a565b9250506040610e0e86828701610d4f565b9150509250925092565b60008060408385031215610e2b57600080fd5b6000610e3985828601610d3a565b9250506020610e4a85828601610d4f565b9150509250929050565b610e5d816111c9565b82525050565b6000610e6e82611145565b610e788185611150565b9350610e8881856020860161120c565b610e91816112cf565b840191505092915050565b6000610ea9602383611150565b9150610eb4826112e0565b604082019050919050565b6000610ecc602283611150565b9150610ed78261132f565b604082019050919050565b6000610eef602683611150565b9150610efa8261137e565b604082019050919050565b6000610f12602883611150565b9150610f1d826113cd565b604082019050919050565b6000610f35602583611150565b9150610f408261141c565b604082019050919050565b6000610f58602483611150565b9150610f638261146b565b604082019050919050565b6000610f7b602583611150565b9150610f86826114ba565b604082019050919050565b6000610f9e601f83611150565b9150610fa982611509565b602082019050919050565b610fbd816111f5565b82525050565b610fcc816111ff565b82525050565b6000602082019050610fe76000830184610e54565b92915050565b600060208201905081810360008301526110078184610e63565b905092915050565b6000602082019050818103600083015261102881610e9c565b9050919050565b6000602082019050818103600083015261104881610ebf565b9050919050565b6000602082019050818103600083015261106881610ee2565b9050919050565b6000602082019050818103600083015261108881610f05565b9050919050565b600060208201905081810360008301526110a881610f28565b9050919050565b600060208201905081810360008301526110c881610f4b565b9050919050565b600060208201905081810360008301526110e881610f6e565b9050919050565b6000602082019050818103600083015261110881610f91565b9050919050565b60006020820190506111246000830184610fb4565b92915050565b600060208201905061113f6000830184610fc3565b92915050565b600081519050919050565b600082825260208201905092915050565b600061116c826111f5565b9150611177836111f5565b9250827fffffffffffffffffffffffffffffffffffffffffffffffffffffffffffffffff038211156111ac576111ab611271565b5b828201905092915050565b60006111c2826111d5565b9050919050565b60008115159050919050565b600073ffffffffffffffffffffffffffffffffffffffff82169050919050565b6000819050919050565b600060ff82169050919050565b60005b8381101561122a57808201518184015260208101905061120f565b83811115611239576000848401525b50505050565b6000600282049050600182168061125757607f821691505b6020821081141561126b5761126a6112a0565b5b50919050565b7f4e487b7100000000000000000000000000000000000000000000000000000000600052601160045260246000fd5b7f4e487b7100000000000000000000000000000000000000000000000000000000600052602260045260246000fd5b6000601f19601f8301169050919050565b7f45524332303a207472616e7366657220746f20746865207a65726f206164647260008201527f6573730000000000000000000000000000000000000000000000000000000000602082015250565b7f45524332303a20617070726f766520746f20746865207a65726f20616464726560008201527f7373000000000000000000000000000000000000000000000000000000000000602082015250565b7f45524332303a207472616e7366657220616d6f756e742065786365656473206260008201527f616c616e63650000000000000000000000000000000000000000000000000000602082015250565b7f45524332303a207472616e7366657220616d6f756e742065786365656473206160008201527f6c6c6f77616e6365000000000000000000000000000000000000000000000000602082015250565b7f45524332303a207472616e736665722066726f6d20746865207a65726f20616460008201527f6472657373000000000000000000000000000000000000000000000000000000602082015250565b7f45524332303a20617070726f76652066726f6d20746865207a65726f2061646460008201527f7265737300000000000000000000000000000000000000000000000000000000602082015250565b7f45524332303a2064656372656173656420616c6c6f77616e63652062656c6f7760008201527f207a65726f000000000000000000000000000000000000000000000000000000602082015250565b7f45524332303a206d696e7420746f20746865207a65726f206164647265737300600082015250565b61153b816111b7565b811461154657600080fd5b50565b611552816111f5565b811461155d57600080fd5b5056fea2646970667358221220d6fcff56a4f0a369245237cc131d12b6bd50df0ecf86e29a209ba166d6985d7564736f6c63430008010033",
  "immutableReferences": {},
  "source": "// SPDX-License-Identifier: MIT\r\npragma solidity >=0.4.22 < 0.9.0;\r\n\r\nimport \"@openzeppelin/contracts/token/ERC20/ERC20.sol\";\r\n\r\n\r\ncontract PAToken is ERC20{\r\n    uint256 private initialSupply;\r\n    constructor(string memory _name, string memory _symbol, uint256 _initialSupply) ERC20(_name, _symbol){\r\n        initialSupply=_initialSupply;\r\n        _mint(msg.sender, _initialSupply*10**decimals());\r\n    }\r\n\r\n    function decimals() public view override returns (uint8) {\r\n\t\treturn 8;\r\n\t}\r\n\r\n    function mint(address account, uint256 amount) public {\r\n        _mint(account, amount);\r\n    }\r\n\r\n    function transfer(address recipient, uint256 amount) public virtual override returns (bool) {\r\n        _transfer(_msgSender(), recipient, amount);\r\n        return true;\r\n    }\r\n\r\n}",
  "sourcePath": "C:\\Users\\MavenMule\\Desktop\\Blank React\\blank-crypto\\src\\contracts\\contracts\\PAToken.sol",
  "compiler": {
    "name": "solc",
    "version": "0.8.1+commit.df193b15.Emscripten.clang"
  },
  "schemaVersion": "3.4.2",
  "updatedAt": "2021-08-11T23:13:23.701Z",
  "networkType": "ethereum",
  "devdoc": {
    "kind": "dev",
    "methods": {
      "allowance(address,address)": {
        "details": "See {IERC20-allowance}."
      },
      "approve(address,uint256)": {
        "details": "See {IERC20-approve}. Requirements: - `spender` cannot be the zero address."
      },
      "balanceOf(address)": {
        "details": "See {IERC20-balanceOf}."
      },
      "decimals()": {
        "details": "Returns the number of decimals used to get its user representation. For example, if `decimals` equals `2`, a balance of `505` tokens should be displayed to a user as `5,05` (`505 / 10 ** 2`). Tokens usually opt for a value of 18, imitating the relationship between Ether and Wei. This is the value {ERC20} uses, unless this function is overridden; NOTE: This information is only used for _display_ purposes: it in no way affects any of the arithmetic of the contract, including {IERC20-balanceOf} and {IERC20-transfer}."
      },
      "decreaseAllowance(address,uint256)": {
        "details": "Atomically decreases the allowance granted to `spender` by the caller. This is an alternative to {approve} that can be used as a mitigation for problems described in {IERC20-approve}. Emits an {Approval} event indicating the updated allowance. Requirements: - `spender` cannot be the zero address. - `spender` must have allowance for the caller of at least `subtractedValue`."
      },
      "increaseAllowance(address,uint256)": {
        "details": "Atomically increases the allowance granted to `spender` by the caller. This is an alternative to {approve} that can be used as a mitigation for problems described in {IERC20-approve}. Emits an {Approval} event indicating the updated allowance. Requirements: - `spender` cannot be the zero address."
      },
      "name()": {
        "details": "Returns the name of the token."
      },
      "symbol()": {
        "details": "Returns the symbol of the token, usually a shorter version of the name."
      },
      "totalSupply()": {
        "details": "See {IERC20-totalSupply}."
      },
      "transfer(address,uint256)": {
        "details": "See {IERC20-transfer}. Requirements: - `recipient` cannot be the zero address. - the caller must have a balance of at least `amount`."
      },
      "transferFrom(address,address,uint256)": {
        "details": "See {IERC20-transferFrom}. Emits an {Approval} event indicating the updated allowance. This is not required by the EIP. See the note at the beginning of {ERC20}. Requirements: - `sender` and `recipient` cannot be the zero address. - `sender` must have a balance of at least `amount`. - the caller must have allowance for ``sender``'s tokens of at least `amount`."
      }
    },
    "version": 1
  },
  "userdoc": {
    "kind": "user",
    "methods": {},
    "version": 1
  }
}