{
  "contractName": "VujoBank",
  "abi": [
    {
      "inputs": [],
      "stateMutability": "nonpayable",
      "type": "constructor"
    },
    {
      "inputs": [],
      "name": "getBalance",
      "outputs": [
        {
          "internalType": "int256",
          "name": "",
          "type": "int256"
        }
      ],
      "stateMutability": "view",
      "type": "function",
      "constant": true
    },
    {
      "inputs": [
        {
          "internalType": "int256",
          "name": "amount",
          "type": "int256"
        }
      ],
      "name": "withdraw",
      "outputs": [],
      "stateMutability": "nonpayable",
      "type": "function"
    },
    {
      "inputs": [
        {
          "internalType": "int256",
          "name": "amount",
          "type": "int256"
        }
      ],
      "name": "deposit",
      "outputs": [],
      "stateMutability": "nonpayable",
      "type": "function"
    },
    {
      "inputs": [
        {
          "internalType": "int256",
          "name": "amount",
          "type": "int256"
        }
      ],
      "name": "transferEther",
      "outputs": [],
      "stateMutability": "nonpayable",
      "type": "function"
    }
  ],
  "bytecode": "0x608060405234801561001057600080fd5b50609c60008190555061031a806100286000396000f3fe608060405234801561001057600080fd5b506004361061004c5760003560e01c806312065fe0146100515780637e62eab81461006f578063c2f3e6001461008b578063f04991f0146100a7575b600080fd5b6100596100c3565b6040516100669190610151565b60405180910390f35b61008960048036038101906100849190610119565b6100cc565b005b6100a560048036038101906100a09190610119565b6100e3565b005b6100c160048036038101906100bc9190610119565b6100ed565b005b60008054905090565b806000546100da9190610200565b60008190555050565b8060008190555050565b806000546100fb919061016c565b60008190555050565b600081359050610113816102cd565b92915050565b60006020828403121561012b57600080fd5b600061013984828501610104565b91505092915050565b61014b81610294565b82525050565b60006020820190506101666000830184610142565b92915050565b600061017782610294565b915061018283610294565b9250817f7fffffffffffffffffffffffffffffffffffffffffffffffffffffffffffffff038313600083121516156101bd576101bc61029e565b5b817f80000000000000000000000000000000000000000000000000000000000000000383126000831216156101f5576101f461029e565b5b828201905092915050565b600061020b82610294565b915061021683610294565b9250827f8000000000000000000000000000000000000000000000000000000000000000018212600084121516156102515761025061029e565b5b827f7fffffffffffffffffffffffffffffffffffffffffffffffffffffffffffffff0182136000841216156102895761028861029e565b5b828203905092915050565b6000819050919050565b7f4e487b7100000000000000000000000000000000000000000000000000000000600052601160045260246000fd5b6102d681610294565b81146102e157600080fd5b5056fea2646970667358221220a117c2bf1e980277ed2dae0baefb055542ce0c4fab2d4b812360b3930c9914d264736f6c63430008010033",
  "immutableReferences": {},
  "source": "// SPDX-License-Identifier: MIT\r\npragma solidity 0.8.1;\r\n\r\ncontract VujoBank{\r\n    int balance;\r\n    \r\n    constructor(){\r\n        balance=156;\r\n    }\r\n    \r\n    function getBalance() view public returns(int){\r\n        return balance;\r\n    }\r\n    \r\n    function withdraw(int amount) public{\r\n        balance=balance-amount;\r\n    }\r\n    \r\n    function deposit(int amount) public{\r\n        balance= balance+amount;\r\n    }\r\n\r\n    function transferEther(int amount) public{\r\n        balance=amount;\r\n    }\r\n    \r\n    \r\n}\r\n",
  "sourcePath": "C:\\Users\\MavenMule\\Desktop\\Blank React\\blank-crypto\\src\\contracts\\contracts\\VujoBank.sol",
  "compiler": {
    "name": "solc",
    "version": "0.8.1+commit.df193b15.Emscripten.clang"
  },
  "schemaVersion": "3.4.2",
  "updatedAt": "2021-08-05T22:58:48.599Z",
  "networkType": "ethereum",
  "devdoc": {
    "kind": "dev",
    "methods": {},
    "version": 1
  },
  "userdoc": {
    "kind": "user",
    "methods": {},
    "version": 1
  }
}